{
  "contractName": "ExerciceSolution",
  "abi": [
    {
      "inputs": [
        {
          "internalType": "contract ERC20Claimable",
          "name": "_erc20",
          "type": "address"
        }
      ],
      "stateMutability": "nonpayable",
      "type": "constructor"
    },
    {
      "inputs": [
        {
          "internalType": "address",
          "name": "",
          "type": "address"
        }
      ],
      "name": "balances",
      "outputs": [
        {
          "internalType": "uint256",
          "name": "",
          "type": "uint256"
        }
      ],
      "stateMutability": "view",
      "type": "function",
      "constant": true
    },
    {
      "inputs": [],
      "name": "erc20",
      "outputs": [
        {
          "internalType": "contract ERC20Claimable",
          "name": "",
          "type": "address"
        }
      ],
      "stateMutability": "view",
      "type": "function",
      "constant": true
    },
    {
      "inputs": [],
      "name": "claimTokensOnBehalf",
      "outputs": [],
      "stateMutability": "nonpayable",
      "type": "function"
    },
    {
      "inputs": [
        {
          "internalType": "address",
          "name": "callerAddress",
          "type": "address"
        }
      ],
      "name": "tokensInCustody",
      "outputs": [
        {
          "internalType": "uint256",
          "name": "",
          "type": "uint256"
        }
      ],
      "stateMutability": "nonpayable",
      "type": "function"
    },
    {
      "inputs": [
        {
          "internalType": "uint256",
          "name": "amountToWithdraw",
          "type": "uint256"
        }
      ],
      "name": "withdrawTokens",
      "outputs": [
        {
          "internalType": "uint256",
          "name": "",
          "type": "uint256"
        }
      ],
      "stateMutability": "nonpayable",
      "type": "function"
    },
    {
      "inputs": [
        {
          "internalType": "uint256",
          "name": "amountToWithdraw",
          "type": "uint256"
        }
      ],
      "name": "depositTokens",
      "outputs": [
        {
          "internalType": "uint256",
          "name": "",
          "type": "uint256"
        }
      ],
      "stateMutability": "nonpayable",
      "type": "function"
    },
    {
      "inputs": [],
      "name": "getERC20DepositAddress",
      "outputs": [
        {
          "internalType": "address",
          "name": "",
          "type": "address"
        }
      ],
      "stateMutability": "nonpayable",
      "type": "function"
    }
  ],
  "bytecode": "0x608060405234801561001057600080fd5b506040516107fa3803806107fa8339818101604052602081101561003357600080fd5b8101908080519060200190929190505050806000806101000a81548173ffffffffffffffffffffffffffffffffffffffff021916908373ffffffffffffffffffffffffffffffffffffffff16021790555050610766806100946000396000f3fe608060405234801561001057600080fd5b506004361061007d5760003560e01c806327e235e31161005b57806327e235e31461012e578063315a095d14610186578063785e9e86146101c8578063dd49756e146102125761007d565b80630776d118146100825780630e4f7f36146100da57806319fa44cd146100e4575b600080fd5b6100c46004803603602081101561009857600080fd5b81019080803573ffffffffffffffffffffffffffffffffffffffff169060200190929190505050610254565b6040518082815260200191505060405180910390f35b6100e261029d565b005b6100ec61038f565b604051808273ffffffffffffffffffffffffffffffffffffffff1673ffffffffffffffffffffffffffffffffffffffff16815260200191505060405180910390f35b6101706004803603602081101561014457600080fd5b81019080803573ffffffffffffffffffffffffffffffffffffffff169060200190929190505050610394565b6040518082815260200191505060405180910390f35b6101b26004803603602081101561019c57600080fd5b81019080803590602001909291905050506103ac565b6040518082815260200191505060405180910390f35b6101d061059c565b604051808273ffffffffffffffffffffffffffffffffffffffff1673ffffffffffffffffffffffffffffffffffffffff16815260200191505060405180910390f35b61023e6004803603602081101561022857600080fd5b81019080803590602001909291905050506105c1565b6040518082815260200191505060405180910390f35b6000600160008373ffffffffffffffffffffffffffffffffffffffff1673ffffffffffffffffffffffffffffffffffffffff168152602001908152602001600020549050919050565b6000809054906101000a900473ffffffffffffffffffffffffffffffffffffffff1673ffffffffffffffffffffffffffffffffffffffff166348c54b9d6040518163ffffffff1660e01b8152600401602060405180830381600087803b15801561030657600080fd5b505af115801561031a573d6000803e3d6000fd5b505050506040513d602081101561033057600080fd5b8101908080519060200190929190505050600160003373ffffffffffffffffffffffffffffffffffffffff1673ffffffffffffffffffffffffffffffffffffffff16815260200190815260200160002060008282540192505081905550565b600090565b60016020528060005260406000206000915090505481565b600081600160003373ffffffffffffffffffffffffffffffffffffffff1673ffffffffffffffffffffffffffffffffffffffff168152602001908152602001600020541015610463576040517f08c379a000000000000000000000000000000000000000000000000000000000815260040180806020018281038252601c8152602001807f4e6f7420656e6f75676820746f6b656e7320696e20637573746f64790000000081525060200191505060405180910390fd5b81600160003373ffffffffffffffffffffffffffffffffffffffff1673ffffffffffffffffffffffffffffffffffffffff168152602001908152602001600020600082825403925050819055506000809054906101000a900473ffffffffffffffffffffffffffffffffffffffff1673ffffffffffffffffffffffffffffffffffffffff1663a9059cbb33846040518363ffffffff1660e01b8152600401808373ffffffffffffffffffffffffffffffffffffffff1673ffffffffffffffffffffffffffffffffffffffff16815260200182815260200192505050602060405180830381600087803b15801561055857600080fd5b505af115801561056c573d6000803e3d6000fd5b505050506040513d602081101561058257600080fd5b810190808051906020019092919050505050819050919050565b6000809054906101000a900473ffffffffffffffffffffffffffffffffffffffff1681565b60008060009054906101000a900473ffffffffffffffffffffffffffffffffffffffff1673ffffffffffffffffffffffffffffffffffffffff166323b872dd3330856040518463ffffffff1660e01b8152600401808473ffffffffffffffffffffffffffffffffffffffff1673ffffffffffffffffffffffffffffffffffffffff1681526020018373ffffffffffffffffffffffffffffffffffffffff1673ffffffffffffffffffffffffffffffffffffffff1681526020018281526020019350505050602060405180830381600087803b15801561069f57600080fd5b505af11580156106b3573d6000803e3d6000fd5b505050506040513d60208110156106c957600080fd5b81019080805190602001909291905050505081600160003373ffffffffffffffffffffffffffffffffffffffff1673ffffffffffffffffffffffffffffffffffffffff1681526020019081526020016000206000828254019250508190555081905091905056fea2646970667358221220cc9c0a05380438651b2ea3842ff485c8e7ae2c715e46bceee22debffd2f9afe064736f6c63430006020033",
  "source": "pragma solidity ^0.6.0;\r\nimport \"./IExerciceSolution.sol\";\r\nimport \"./ERC20Claimable.sol\";\r\n\r\ncontract ExerciceSolution is IExerciceSolution\r\n{\r\n\r\n\tERC20Claimable public erc20;\r\n\tmapping (address => uint256) public balances;\r\n\r\n\tconstructor(ERC20Claimable _erc20) public\r\n\t{\r\n\t\terc20 = _erc20;\r\n\t}\r\n\r\n\tfunction claimTokensOnBehalf() external override {\r\n\t\tbalances[msg.sender] += erc20.claimTokens();\r\n\t}\r\n\r\n\tfunction tokensInCustody(address callerAddress) external override returns (uint256){\r\n\t\treturn balances[callerAddress];\r\n\t}\r\n\r\n\tfunction withdrawTokens(uint256 amountToWithdraw) external override returns (uint256){\r\n\t\trequire(balances[msg.sender] >= amountToWithdraw, \"Not enough tokens in custody\");\r\n\t\tbalances[msg.sender] -= amountToWithdraw;\r\n\t\terc20.transfer(msg.sender, amountToWithdraw);\r\n\t\treturn amountToWithdraw;\r\n\r\n\t}\r\n\r\n\tfunction depositTokens(uint256 amountToWithdraw) external override returns (uint256){\r\n\t\terc20.transferFrom(msg.sender, address(this), amountToWithdraw);\r\n\t\tbalances[msg.sender] += amountToWithdraw;\r\n\t\treturn amountToWithdraw;\r\n\r\n\t}\r\n\r\n\tfunction getERC20DepositAddress() external override returns (address){\r\n\r\n\t}\r\n}",
  "sourcePath": "C:\\Users\\arth-\\Documents\\A4\\S8\\Decentralized Finance\\ERC20-2\\contracts\\ExerciceSolution.sol",
  "compiler": {
    "name": "solc",
    "version": "0.6.2+commit.bacdbe57.Emscripten.clang"
  },
  "schemaVersion": "3.4.11",
  "updatedAt": "2023-01-23T16:13:36.349Z",
  "networkType": "ethereum",
  "devdoc": {
    "methods": {}
  },
  "userdoc": {
    "methods": {}
  }
}